{
  "contractName": "nft",
  "abi": [
    {
      "inputs": [],
      "stateMutability": "nonpayable",
      "type": "constructor"
    },
    {
      "anonymous": false,
      "inputs": [
        {
          "indexed": true,
          "internalType": "address",
          "name": "owner",
          "type": "address"
        },
        {
          "indexed": true,
          "internalType": "address",
          "name": "approved",
          "type": "address"
        },
        {
          "indexed": true,
          "internalType": "uint256",
          "name": "tokenId",
          "type": "uint256"
        }
      ],
      "name": "Approval",
      "type": "event"
    },
    {
      "anonymous": false,
      "inputs": [
        {
          "indexed": true,
          "internalType": "address",
          "name": "owner",
          "type": "address"
        },
        {
          "indexed": true,
          "internalType": "address",
          "name": "operator",
          "type": "address"
        },
        {
          "indexed": false,
          "internalType": "bool",
          "name": "approved",
          "type": "bool"
        }
      ],
      "name": "ApprovalForAll",
      "type": "event"
    },
    {
      "anonymous": false,
      "inputs": [
        {
          "indexed": true,
          "internalType": "address",
          "name": "from",
          "type": "address"
        },
        {
          "indexed": true,
          "internalType": "address",
          "name": "to",
          "type": "address"
        },
        {
          "indexed": true,
          "internalType": "uint256",
          "name": "tokenId",
          "type": "uint256"
        }
      ],
      "name": "Transfer",
      "type": "event"
    },
    {
      "inputs": [
        {
          "internalType": "address",
          "name": "to",
          "type": "address"
        },
        {
          "internalType": "uint256",
          "name": "tokenId",
          "type": "uint256"
        }
      ],
      "name": "approve",
      "outputs": [],
      "stateMutability": "nonpayable",
      "type": "function"
    },
    {
      "inputs": [
        {
          "internalType": "address",
          "name": "owner",
          "type": "address"
        }
      ],
      "name": "balanceOf",
      "outputs": [
        {
          "internalType": "uint256",
          "name": "",
          "type": "uint256"
        }
      ],
      "stateMutability": "view",
      "type": "function",
      "constant": true
    },
    {
      "inputs": [
        {
          "internalType": "uint256",
          "name": "tokenId",
          "type": "uint256"
        }
      ],
      "name": "getApproved",
      "outputs": [
        {
          "internalType": "address",
          "name": "",
          "type": "address"
        }
      ],
      "stateMutability": "view",
      "type": "function",
      "constant": true
    },
    {
      "inputs": [
        {
          "internalType": "address",
          "name": "owner",
          "type": "address"
        },
        {
          "internalType": "address",
          "name": "operator",
          "type": "address"
        }
      ],
      "name": "isApprovedForAll",
      "outputs": [
        {
          "internalType": "bool",
          "name": "",
          "type": "bool"
        }
      ],
      "stateMutability": "view",
      "type": "function",
      "constant": true
    },
    {
      "inputs": [],
      "name": "name",
      "outputs": [
        {
          "internalType": "string",
          "name": "",
          "type": "string"
        }
      ],
      "stateMutability": "view",
      "type": "function",
      "constant": true
    },
    {
      "inputs": [
        {
          "internalType": "uint256",
          "name": "tokenId",
          "type": "uint256"
        }
      ],
      "name": "ownerOf",
      "outputs": [
        {
          "internalType": "address",
          "name": "",
          "type": "address"
        }
      ],
      "stateMutability": "view",
      "type": "function",
      "constant": true
    },
    {
      "inputs": [
        {
          "internalType": "address",
          "name": "from",
          "type": "address"
        },
        {
          "internalType": "address",
          "name": "to",
          "type": "address"
        },
        {
          "internalType": "uint256",
          "name": "tokenId",
          "type": "uint256"
        }
      ],
      "name": "safeTransferFrom",
      "outputs": [],
      "stateMutability": "nonpayable",
      "type": "function"
    },
    {
      "inputs": [
        {
          "internalType": "address",
          "name": "from",
          "type": "address"
        },
        {
          "internalType": "address",
          "name": "to",
          "type": "address"
        },
        {
          "internalType": "uint256",
          "name": "tokenId",
          "type": "uint256"
        },
        {
          "internalType": "bytes",
          "name": "_data",
          "type": "bytes"
        }
      ],
      "name": "safeTransferFrom",
      "outputs": [],
      "stateMutability": "nonpayable",
      "type": "function"
    },
    {
      "inputs": [
        {
          "internalType": "address",
          "name": "operator",
          "type": "address"
        },
        {
          "internalType": "bool",
          "name": "approved",
          "type": "bool"
        }
      ],
      "name": "setApprovalForAll",
      "outputs": [],
      "stateMutability": "nonpayable",
      "type": "function"
    },
    {
      "inputs": [
        {
          "internalType": "bytes4",
          "name": "interfaceId",
          "type": "bytes4"
        }
      ],
      "name": "supportsInterface",
      "outputs": [
        {
          "internalType": "bool",
          "name": "",
          "type": "bool"
        }
      ],
      "stateMutability": "view",
      "type": "function",
      "constant": true
    },
    {
      "inputs": [],
      "name": "symbol",
      "outputs": [
        {
          "internalType": "string",
          "name": "",
          "type": "string"
        }
      ],
      "stateMutability": "view",
      "type": "function",
      "constant": true
    },
    {
      "inputs": [
        {
          "internalType": "uint256",
          "name": "tokenId",
          "type": "uint256"
        }
      ],
      "name": "tokenURI",
      "outputs": [
        {
          "internalType": "string",
          "name": "",
          "type": "string"
        }
      ],
      "stateMutability": "view",
      "type": "function",
      "constant": true
    },
    {
      "inputs": [
        {
          "internalType": "address",
          "name": "from",
          "type": "address"
        },
        {
          "internalType": "address",
          "name": "to",
          "type": "address"
        },
        {
          "internalType": "uint256",
          "name": "tokenId",
          "type": "uint256"
        }
      ],
      "name": "transferFrom",
      "outputs": [],
      "stateMutability": "nonpayable",
      "type": "function"
    },
    {
      "inputs": [
        {
          "internalType": "address",
          "name": "recipient",
          "type": "address"
        },
        {
          "internalType": "string",
          "name": "tokenURI",
          "type": "string"
        },
        {
          "internalType": "uint256",
          "name": "_tokenId",
          "type": "uint256"
        }
      ],
      "name": "mint",
      "outputs": [
        {
          "internalType": "uint256",
          "name": "",
          "type": "uint256"
        }
      ],
      "stateMutability": "nonpayable",
      "type": "function"
    },
    {
      "inputs": [
        {
          "internalType": "address",
          "name": "recipient",
          "type": "address"
        },
        {
          "internalType": "uint256",
          "name": "_tokenId",
          "type": "uint256"
        }
      ],
      "name": "mintbyTokenId",
      "outputs": [],
      "stateMutability": "nonpayable",
      "type": "function"
    },
    {
      "inputs": [
        {
          "internalType": "uint256",
          "name": "_tokenId",
          "type": "uint256"
        }
      ],
      "name": "mintOnCallingAddress",
      "outputs": [],
      "stateMutability": "nonpayable",
      "type": "function"
    }
  ],
  "bytecode": "0x60806040523480156200001157600080fd5b506040518060400160405280600a81526020017f546574686572204e4654000000000000000000000000000000000000000000008152506040518060400160405280600381526020017f6e66740000000000000000000000000000000000000000000000000000000000815250816000908051906020019062000096929190620000b8565b508060019080519060200190620000af929190620000b8565b505050620001cd565b828054620000c69062000168565b90600052602060002090601f016020900481019282620000ea576000855562000136565b82601f106200010557805160ff191683800117855562000136565b8280016001018555821562000136579182015b828111156200013557825182559160200191906001019062000118565b5b50905062000145919062000149565b5090565b5b80821115620001645760008160009055506001016200014a565b5090565b600060028204905060018216806200018157607f821691505b602082108114156200019857620001976200019e565b5b50919050565b7f4e487b7100000000000000000000000000000000000000000000000000000000600052602260045260246000fd5b612d1580620001dd6000396000f3fe608060405234801561001057600080fd5b50600436106101005760003560e01c806395d89b4111610097578063ba7aef4311610066578063ba7aef43146102a9578063c87b56dd146102d9578063d77b849f14610309578063e985e9c51461032557610100565b806395d89b4114610237578063a22cb46514610255578063b88d4fde14610271578063b92bdc721461028d57610100565b806323b872dd116100d357806323b872dd1461019f57806342842e0e146101bb5780636352211e146101d757806370a082311461020757610100565b806301ffc9a71461010557806306fdde0314610135578063081812fc14610153578063095ea7b314610183575b600080fd5b61011f600480360381019061011a9190611d56565b610355565b60405161012c919061217f565b60405180910390f35b61013d610437565b60405161014a919061219a565b60405180910390f35b61016d60048036038101906101689190611da8565b6104c9565b60405161017a9190612118565b60405180910390f35b61019d60048036038101906101989190611d1a565b61054e565b005b6101b960048036038101906101b49190611bad565b610666565b005b6101d560048036038101906101d09190611bad565b6106c6565b005b6101f160048036038101906101ec9190611da8565b6106e6565b6040516101fe9190612118565b60405180910390f35b610221600480360381019061021c9190611b48565b610798565b60405161022e91906123dc565b60405180910390f35b61023f610850565b60405161024c919061219a565b60405180910390f35b61026f600480360381019061026a9190611c77565b6108e2565b005b61028b60048036038101906102869190611bfc565b6108f8565b005b6102a760048036038101906102a29190611d1a565b61095a565b005b6102c360048036038101906102be9190611cb3565b6109b1565b6040516102d091906123dc565b60405180910390f35b6102f360048036038101906102ee9190611da8565b6109ea565b604051610300919061219a565b60405180910390f35b610323600480360381019061031e9190611da8565b610b3c565b005b61033f600480360381019061033a9190611b71565b610b92565b60405161034c919061217f565b60405180910390f35b60007f80ac58cd000000000000000000000000000000000000000000000000000000007bffffffffffffffffffffffffffffffffffffffffffffffffffffffff1916827bffffffffffffffffffffffffffffffffffffffffffffffffffffffff1916148061042057507f5b5e139f000000000000000000000000000000000000000000000000000000007bffffffffffffffffffffffffffffffffffffffffffffffffffffffff1916827bffffffffffffffffffffffffffffffffffffffffffffffffffffffff1916145b80610430575061042f82610c26565b5b9050919050565b60606000805461044690612632565b80601f016020809104026020016040519081016040528092919081815260200182805461047290612632565b80156104bf5780601f10610494576101008083540402835291602001916104bf565b820191906000526020600020905b8154815290600101906020018083116104a257829003601f168201915b5050505050905090565b60006104d482610c90565b610513576040517f08c379a000000000000000000000000000000000000000000000000000000000815260040161050a9061233c565b60405180910390fd5b6004600083815260200190815260200160002060009054906101000a900473ffffffffffffffffffffffffffffffffffffffff169050919050565b6000610559826106e6565b90508073ffffffffffffffffffffffffffffffffffffffff168373ffffffffffffffffffffffffffffffffffffffff1614156105ca576040517f08c379a00000000000000000000000000000000000000000000000000000000081526004016105c19061237c565b60405180910390fd5b8073ffffffffffffffffffffffffffffffffffffffff166105e9610cfc565b73ffffffffffffffffffffffffffffffffffffffff161480610618575061061781610612610cfc565b610b92565b5b610657576040517f08c379a000000000000000000000000000000000000000000000000000000000815260040161064e9061227c565b60405180910390fd5b6106618383610d04565b505050565b610677610671610cfc565b82610dbd565b6106b6576040517f08c379a00000000000000000000000000000000000000000000000000000000081526004016106ad9061239c565b60405180910390fd5b6106c1838383610e9b565b505050565b6106e1838383604051806020016040528060008152506108f8565b505050565b6000806002600084815260200190815260200160002060009054906101000a900473ffffffffffffffffffffffffffffffffffffffff169050600073ffffffffffffffffffffffffffffffffffffffff168173ffffffffffffffffffffffffffffffffffffffff16141561078f576040517f08c379a0000000000000000000000000000000000000000000000000000000008152600401610786906122bc565b60405180910390fd5b80915050919050565b60008073ffffffffffffffffffffffffffffffffffffffff168273ffffffffffffffffffffffffffffffffffffffff161415610809576040517f08c379a00000000000000000000000000000000000000000000000000000000081526004016108009061229c565b60405180910390fd5b600360008373ffffffffffffffffffffffffffffffffffffffff1673ffffffffffffffffffffffffffffffffffffffff168152602001908152602001600020549050919050565b60606001805461085f90612632565b80601f016020809104026020016040519081016040528092919081815260200182805461088b90612632565b80156108d85780601f106108ad576101008083540402835291602001916108d8565b820191906000526020600020905b8154815290600101906020018083116108bb57829003601f168201915b5050505050905090565b6108f46108ed610cfc565b8383611102565b5050565b610909610903610cfc565b83610dbd565b610948576040517f08c379a000000000000000000000000000000000000000000000000000000000815260040161093f9061239c565b60405180910390fd5b6109548484848461126f565b50505050565b61096381610c90565b156109a3576040517f08c379a000000000000000000000000000000000000000000000000000000000815260040161099a906123bc565b60405180910390fd5b6109ad82826112cb565b5050565b60006109bd60076114a5565b60006109c960076114bb565b90506109d585826112cb565b6109df81856114c9565b809150509392505050565b60606109f582610c90565b610a34576040517f08c379a0000000000000000000000000000000000000000000000000000000008152600401610a2b9061231c565b60405180910390fd5b6000600660008481526020019081526020016000208054610a5490612632565b80601f0160208091040260200160405190810160405280929190818152602001828054610a8090612632565b8015610acd5780601f10610aa257610100808354040283529160200191610acd565b820191906000526020600020905b815481529060010190602001808311610ab057829003601f168201915b505050505090506000610ade61153d565b9050600081511415610af4578192505050610b37565b600082511115610b29578082604051602001610b119291906120f4565b60405160208183030381529060405292505050610b37565b610b3284611554565b925050505b919050565b610b4581610c90565b15610b85576040517f08c379a0000000000000000000000000000000000000000000000000000000008152600401610b7c906123bc565b60405180910390fd5b610b8f33826112cb565b50565b6000600560008473ffffffffffffffffffffffffffffffffffffffff1673ffffffffffffffffffffffffffffffffffffffff16815260200190815260200160002060008373ffffffffffffffffffffffffffffffffffffffff1673ffffffffffffffffffffffffffffffffffffffff16815260200190815260200160002060009054906101000a900460ff16905092915050565b60007f01ffc9a7000000000000000000000000000000000000000000000000000000007bffffffffffffffffffffffffffffffffffffffffffffffffffffffff1916827bffffffffffffffffffffffffffffffffffffffffffffffffffffffff1916149050919050565b60008073ffffffffffffffffffffffffffffffffffffffff166002600084815260200190815260200160002060009054906101000a900473ffffffffffffffffffffffffffffffffffffffff1673ffffffffffffffffffffffffffffffffffffffff1614159050919050565b600033905090565b816004600083815260200190815260200160002060006101000a81548173ffffffffffffffffffffffffffffffffffffffff021916908373ffffffffffffffffffffffffffffffffffffffff160217905550808273ffffffffffffffffffffffffffffffffffffffff16610d77836106e6565b73ffffffffffffffffffffffffffffffffffffffff167f8c5be1e5ebec7d5bd14f71427d1e84f3dd0314c0f7b2291e5b200ac8c7c3b92560405160405180910390a45050565b6000610dc882610c90565b610e07576040517f08c379a0000000000000000000000000000000000000000000000000000000008152600401610dfe9061225c565b60405180910390fd5b6000610e12836106e6565b90508073ffffffffffffffffffffffffffffffffffffffff168473ffffffffffffffffffffffffffffffffffffffff161480610e8157508373ffffffffffffffffffffffffffffffffffffffff16610e69846104c9565b73ffffffffffffffffffffffffffffffffffffffff16145b80610e925750610e918185610b92565b5b91505092915050565b8273ffffffffffffffffffffffffffffffffffffffff16610ebb826106e6565b73ffffffffffffffffffffffffffffffffffffffff1614610f11576040517f08c379a0000000000000000000000000000000000000000000000000000000008152600401610f08906121dc565b60405180910390fd5b600073ffffffffffffffffffffffffffffffffffffffff168273ffffffffffffffffffffffffffffffffffffffff161415610f81576040517f08c379a0000000000000000000000000000000000000000000000000000000008152600401610f789061221c565b60405180910390fd5b610f8c8383836115fb565b610f97600082610d04565b6001600360008573ffffffffffffffffffffffffffffffffffffffff1673ffffffffffffffffffffffffffffffffffffffff1681526020019081526020016000206000828254610fe79190612548565b925050819055506001600360008473ffffffffffffffffffffffffffffffffffffffff1673ffffffffffffffffffffffffffffffffffffffff168152602001908152602001600020600082825461103e91906124c1565b92505081905550816002600083815260200190815260200160002060006101000a81548173ffffffffffffffffffffffffffffffffffffffff021916908373ffffffffffffffffffffffffffffffffffffffff160217905550808273ffffffffffffffffffffffffffffffffffffffff168473ffffffffffffffffffffffffffffffffffffffff167fddf252ad1be2c89b69c2b068fc378daa952ba7f163c4a11628f55a4df523b3ef60405160405180910390a46110fd838383611600565b505050565b8173ffffffffffffffffffffffffffffffffffffffff168373ffffffffffffffffffffffffffffffffffffffff161415611171576040517f08c379a00000000000000000000000000000000000000000000000000000000081526004016111689061223c565b60405180910390fd5b80600560008573ffffffffffffffffffffffffffffffffffffffff1673ffffffffffffffffffffffffffffffffffffffff16815260200190815260200160002060008473ffffffffffffffffffffffffffffffffffffffff1673ffffffffffffffffffffffffffffffffffffffff16815260200190815260200160002060006101000a81548160ff0219169083151502179055508173ffffffffffffffffffffffffffffffffffffffff168373ffffffffffffffffffffffffffffffffffffffff167f17307eab39ab6107e8899845ad3d59bd9653f200f220920489ca2b5937696c3183604051611262919061217f565b60405180910390a3505050565b61127a848484610e9b565b61128684848484611605565b6112c5576040517f08c379a00000000000000000000000000000000000000000000000000000000081526004016112bc906121bc565b60405180910390fd5b50505050565b600073ffffffffffffffffffffffffffffffffffffffff168273ffffffffffffffffffffffffffffffffffffffff16141561133b576040517f08c379a0000000000000000000000000000000000000000000000000000000008152600401611332906122fc565b60405180910390fd5b61134481610c90565b15611384576040517f08c379a000000000000000000000000000000000000000000000000000000000815260040161137b906121fc565b60405180910390fd5b611390600083836115fb565b6001600360008473ffffffffffffffffffffffffffffffffffffffff1673ffffffffffffffffffffffffffffffffffffffff16815260200190815260200160002060008282546113e091906124c1565b92505081905550816002600083815260200190815260200160002060006101000a81548173ffffffffffffffffffffffffffffffffffffffff021916908373ffffffffffffffffffffffffffffffffffffffff160217905550808273ffffffffffffffffffffffffffffffffffffffff16600073ffffffffffffffffffffffffffffffffffffffff167fddf252ad1be2c89b69c2b068fc378daa952ba7f163c4a11628f55a4df523b3ef60405160405180910390a46114a160008383611600565b5050565b6001816000016000828254019250508190555050565b600081600001549050919050565b6114d282610c90565b611511576040517f08c379a0000000000000000000000000000000000000000000000000000000008152600401611508906122dc565b60405180910390fd5b8060066000848152602001908152602001600020908051906020019061153892919061196c565b505050565b606060405180602001604052806000815250905090565b606061155f82610c90565b61159e576040517f08c379a00000000000000000000000000000000000000000000000000000000081526004016115959061235c565b60405180910390fd5b60006115a861153d565b905060008151116115c857604051806020016040528060008152506115f3565b806115d28461179c565b6040516020016115e39291906120f4565b6040516020818303038152906040525b915050919050565b505050565b505050565b60006116268473ffffffffffffffffffffffffffffffffffffffff16611949565b1561178f578373ffffffffffffffffffffffffffffffffffffffff1663150b7a0261164f610cfc565b8786866040518563ffffffff1660e01b81526004016116719493929190612133565b602060405180830381600087803b15801561168b57600080fd5b505af19250505080156116bc57506040513d601f19601f820116820180604052508101906116b99190611d7f565b60015b61173f573d80600081146116ec576040519150601f19603f3d011682016040523d82523d6000602084013e6116f1565b606091505b50600081511415611737576040517f08c379a000000000000000000000000000000000000000000000000000000000815260040161172e906121bc565b60405180910390fd5b805181602001fd5b63150b7a0260e01b7bffffffffffffffffffffffffffffffffffffffffffffffffffffffff1916817bffffffffffffffffffffffffffffffffffffffffffffffffffffffff191614915050611794565b600190505b949350505050565b606060008214156117e4576040518060400160405280600181526020017f30000000000000000000000000000000000000000000000000000000000000008152509050611944565b600082905060005b600082146118165780806117ff90612695565b915050600a8261180f9190612517565b91506117ec565b60008167ffffffffffffffff811115611858577f4e487b7100000000000000000000000000000000000000000000000000000000600052604160045260246000fd5b6040519080825280601f01601f19166020018201604052801561188a5781602001600182028036833780820191505090505b5090505b6000851461193d576001826118a39190612548565b9150600a856118b291906126de565b60306118be91906124c1565b60f81b8183815181106118fa577f4e487b7100000000000000000000000000000000000000000000000000000000600052603260045260246000fd5b60200101907effffffffffffffffffffffffffffffffffffffffffffffffffffffffffffff1916908160001a905350600a856119369190612517565b945061188e565b8093505050505b919050565b6000808273ffffffffffffffffffffffffffffffffffffffff163b119050919050565b82805461197890612632565b90600052602060002090601f01602090048101928261199a57600085556119e1565b82601f106119b357805160ff19168380011785556119e1565b828001600101855582156119e1579182015b828111156119e05782518255916020019190600101906119c5565b5b5090506119ee91906119f2565b5090565b5b80821115611a0b5760008160009055506001016119f3565b5090565b6000611a22611a1d8461241c565b6123f7565b905082815260208101848484011115611a3a57600080fd5b611a458482856125f0565b509392505050565b6000611a60611a5b8461244d565b6123f7565b905082815260208101848484011115611a7857600080fd5b611a838482856125f0565b509392505050565b600081359050611a9a81612c83565b92915050565b600081359050611aaf81612c9a565b92915050565b600081359050611ac481612cb1565b92915050565b600081519050611ad981612cb1565b92915050565b600082601f830112611af057600080fd5b8135611b00848260208601611a0f565b91505092915050565b600082601f830112611b1a57600080fd5b8135611b2a848260208601611a4d565b91505092915050565b600081359050611b4281612cc8565b92915050565b600060208284031215611b5a57600080fd5b6000611b6884828501611a8b565b91505092915050565b60008060408385031215611b8457600080fd5b6000611b9285828601611a8b565b9250506020611ba385828601611a8b565b9150509250929050565b600080600060608486031215611bc257600080fd5b6000611bd086828701611a8b565b9350506020611be186828701611a8b565b9250506040611bf286828701611b33565b9150509250925092565b60008060008060808587031215611c1257600080fd5b6000611c2087828801611a8b565b9450506020611c3187828801611a8b565b9350506040611c4287828801611b33565b925050606085013567ffffffffffffffff811115611c5f57600080fd5b611c6b87828801611adf565b91505092959194509250565b60008060408385031215611c8a57600080fd5b6000611c9885828601611a8b565b9250506020611ca985828601611aa0565b9150509250929050565b600080600060608486031215611cc857600080fd5b6000611cd686828701611a8b565b935050602084013567ffffffffffffffff811115611cf357600080fd5b611cff86828701611b09565b9250506040611d1086828701611b33565b9150509250925092565b60008060408385031215611d2d57600080fd5b6000611d3b85828601611a8b565b9250506020611d4c85828601611b33565b9150509250929050565b600060208284031215611d6857600080fd5b6000611d7684828501611ab5565b91505092915050565b600060208284031215611d9157600080fd5b6000611d9f84828501611aca565b91505092915050565b600060208284031215611dba57600080fd5b6000611dc884828501611b33565b91505092915050565b611dda8161257c565b82525050565b611de98161258e565b82525050565b6000611dfa8261247e565b611e048185612494565b9350611e148185602086016125ff565b611e1d816127cb565b840191505092915050565b6000611e3382612489565b611e3d81856124a5565b9350611e4d8185602086016125ff565b611e56816127cb565b840191505092915050565b6000611e6c82612489565b611e7681856124b6565b9350611e868185602086016125ff565b80840191505092915050565b6000611e9f6032836124a5565b9150611eaa826127dc565b604082019050919050565b6000611ec26025836124a5565b9150611ecd8261282b565b604082019050919050565b6000611ee5601c836124a5565b9150611ef08261287a565b602082019050919050565b6000611f086024836124a5565b9150611f13826128a3565b604082019050919050565b6000611f2b6019836124a5565b9150611f36826128f2565b602082019050919050565b6000611f4e602c836124a5565b9150611f598261291b565b604082019050919050565b6000611f716038836124a5565b9150611f7c8261296a565b604082019050919050565b6000611f94602a836124a5565b9150611f9f826129b9565b604082019050919050565b6000611fb76029836124a5565b9150611fc282612a08565b604082019050919050565b6000611fda602e836124a5565b9150611fe582612a57565b604082019050919050565b6000611ffd6020836124a5565b915061200882612aa6565b602082019050919050565b60006120206031836124a5565b915061202b82612acf565b604082019050919050565b6000612043602c836124a5565b915061204e82612b1e565b604082019050919050565b6000612066602f836124a5565b915061207182612b6d565b604082019050919050565b60006120896021836124a5565b915061209482612bbc565b604082019050919050565b60006120ac6031836124a5565b91506120b782612c0b565b604082019050919050565b60006120cf6014836124a5565b91506120da82612c5a565b602082019050919050565b6120ee816125e6565b82525050565b60006121008285611e61565b915061210c8284611e61565b91508190509392505050565b600060208201905061212d6000830184611dd1565b92915050565b60006080820190506121486000830187611dd1565b6121556020830186611dd1565b61216260408301856120e5565b81810360608301526121748184611def565b905095945050505050565b60006020820190506121946000830184611de0565b92915050565b600060208201905081810360008301526121b48184611e28565b905092915050565b600060208201905081810360008301526121d581611e92565b9050919050565b600060208201905081810360008301526121f581611eb5565b9050919050565b6000602082019050818103600083015261221581611ed8565b9050919050565b6000602082019050818103600083015261223581611efb565b9050919050565b6000602082019050818103600083015261225581611f1e565b9050919050565b6000602082019050818103600083015261227581611f41565b9050919050565b6000602082019050818103600083015261229581611f64565b9050919050565b600060208201905081810360008301526122b581611f87565b9050919050565b600060208201905081810360008301526122d581611faa565b9050919050565b600060208201905081810360008301526122f581611fcd565b9050919050565b6000602082019050818103600083015261231581611ff0565b9050919050565b6000602082019050818103600083015261233581612013565b9050919050565b6000602082019050818103600083015261235581612036565b9050919050565b6000602082019050818103600083015261237581612059565b9050919050565b600060208201905081810360008301526123958161207c565b9050919050565b600060208201905081810360008301526123b58161209f565b9050919050565b600060208201905081810360008301526123d5816120c2565b9050919050565b60006020820190506123f160008301846120e5565b92915050565b6000612401612412565b905061240d8282612664565b919050565b6000604051905090565b600067ffffffffffffffff8211156124375761243661279c565b5b612440826127cb565b9050602081019050919050565b600067ffffffffffffffff8211156124685761246761279c565b5b612471826127cb565b9050602081019050919050565b600081519050919050565b600081519050919050565b600082825260208201905092915050565b600082825260208201905092915050565b600081905092915050565b60006124cc826125e6565b91506124d7836125e6565b9250827fffffffffffffffffffffffffffffffffffffffffffffffffffffffffffffffff0382111561250c5761250b61270f565b5b828201905092915050565b6000612522826125e6565b915061252d836125e6565b92508261253d5761253c61273e565b5b828204905092915050565b6000612553826125e6565b915061255e836125e6565b9250828210156125715761257061270f565b5b828203905092915050565b6000612587826125c6565b9050919050565b60008115159050919050565b60007fffffffff0000000000000000000000000000000000000000000000000000000082169050919050565b600073ffffffffffffffffffffffffffffffffffffffff82169050919050565b6000819050919050565b82818337600083830152505050565b60005b8381101561261d578082015181840152602081019050612602565b8381111561262c576000848401525b50505050565b6000600282049050600182168061264a57607f821691505b6020821081141561265e5761265d61276d565b5b50919050565b61266d826127cb565b810181811067ffffffffffffffff8211171561268c5761268b61279c565b5b80604052505050565b60006126a0826125e6565b91507fffffffffffffffffffffffffffffffffffffffffffffffffffffffffffffffff8214156126d3576126d261270f565b5b600182019050919050565b60006126e9826125e6565b91506126f4836125e6565b9250826127045761270361273e565b5b828206905092915050565b7f4e487b7100000000000000000000000000000000000000000000000000000000600052601160045260246000fd5b7f4e487b7100000000000000000000000000000000000000000000000000000000600052601260045260246000fd5b7f4e487b7100000000000000000000000000000000000000000000000000000000600052602260045260246000fd5b7f4e487b7100000000000000000000000000000000000000000000000000000000600052604160045260246000fd5b6000601f19601f8301169050919050565b7f4552433732313a207472616e7366657220746f206e6f6e20455243373231526560008201527f63656976657220696d706c656d656e7465720000000000000000000000000000602082015250565b7f4552433732313a207472616e736665722066726f6d20696e636f72726563742060008201527f6f776e6572000000000000000000000000000000000000000000000000000000602082015250565b7f4552433732313a20746f6b656e20616c7265616479206d696e74656400000000600082015250565b7f4552433732313a207472616e7366657220746f20746865207a65726f2061646460008201527f7265737300000000000000000000000000000000000000000000000000000000602082015250565b7f4552433732313a20617070726f766520746f2063616c6c657200000000000000600082015250565b7f4552433732313a206f70657261746f7220717565727920666f72206e6f6e657860008201527f697374656e7420746f6b656e0000000000000000000000000000000000000000602082015250565b7f4552433732313a20617070726f76652063616c6c6572206973206e6f74206f7760008201527f6e6572206e6f7220617070726f76656420666f7220616c6c0000000000000000602082015250565b7f4552433732313a2062616c616e636520717565727920666f7220746865207a6560008201527f726f206164647265737300000000000000000000000000000000000000000000602082015250565b7f4552433732313a206f776e657220717565727920666f72206e6f6e657869737460008201527f656e7420746f6b656e0000000000000000000000000000000000000000000000602082015250565b7f45524337323155524953746f726167653a2055524920736574206f66206e6f6e60008201527f6578697374656e7420746f6b656e000000000000000000000000000000000000602082015250565b7f4552433732313a206d696e7420746f20746865207a65726f2061646472657373600082015250565b7f45524337323155524953746f726167653a2055524920717565727920666f722060008201527f6e6f6e6578697374656e7420746f6b656e000000000000000000000000000000602082015250565b7f4552433732313a20617070726f76656420717565727920666f72206e6f6e657860008201527f697374656e7420746f6b656e0000000000000000000000000000000000000000602082015250565b7f4552433732314d657461646174613a2055524920717565727920666f72206e6f60008201527f6e6578697374656e7420746f6b656e0000000000000000000000000000000000602082015250565b7f4552433732313a20617070726f76616c20746f2063757272656e74206f776e6560008201527f7200000000000000000000000000000000000000000000000000000000000000602082015250565b7f4552433732313a207472616e736665722063616c6c6572206973206e6f74206f60008201527f776e6572206e6f7220617070726f766564000000000000000000000000000000602082015250565b7f546f6b656e20416c726561647920457869737473000000000000000000000000600082015250565b612c8c8161257c565b8114612c9757600080fd5b50565b612ca38161258e565b8114612cae57600080fd5b50565b612cba8161259a565b8114612cc557600080fd5b50565b612cd1816125e6565b8114612cdc57600080fd5b5056fea26469706673582212201a33da8aae2271617a9e15549cff0828ec6e868f00cb40610c25d4a38b505e1364736f6c63430008010033",
  "immutableReferences": {},
  "source": "// contracts/GameItem.sol\n// SPDX-License-Identifier: MIT\npragma solidity ^0.8.1;\n\nimport \"@openzeppelin/contracts/token/ERC721/ERC721.sol\";\nimport \"@openzeppelin/contracts/token/ERC721/extensions/ERC721URIStorage.sol\";\nimport \"@openzeppelin/contracts/utils/Counters.sol\";\nimport \"@openzeppelin/contracts/token/ERC721/extensions/IERC721Enumerable.sol\";\n\ncontract nft is ERC721URIStorage {\n    using Counters for Counters.Counter;\n    Counters.Counter private _tokenIds;\n\n    constructor() ERC721(\"Tether NFT\", \"nft\") {}\n    function mint(address recipient, string memory tokenURI,uint256 _tokenId)\n        public\n        returns (uint256)\n    {\n        _tokenIds.increment();\n\n        uint256 newItemId = _tokenIds.current();\n        _mint(recipient, newItemId);\n        _setTokenURI(newItemId, tokenURI);\n\n        return newItemId;\n    }\n    function mintbyTokenId(address recipient,uint256 _tokenId) public{\n        require(!_exists(_tokenId),\"Token Already Exists\");\n        _mint(recipient,_tokenId);\n    }\n    function mintOnCallingAddress(uint256 _tokenId) public{\n        require(!_exists(_tokenId),\"Token Already Exists\");\n        _mint(msg.sender,_tokenId);\n    }\n}",
  "sourcePath": "/home/asim/Desktop/ERC721/contracts/nft.sol",
  "compiler": {
    "name": "solc",
    "version": "0.8.1+commit.df193b15.Emscripten.clang"
  },
  "schemaVersion": "3.4.3",
  "updatedAt": "2022-02-15T08:28:51.183Z",
  "networkType": "ethereum",
  "devdoc": {
    "kind": "dev",
    "methods": {
      "approve(address,uint256)": {
        "details": "See {IERC721-approve}."
      },
      "balanceOf(address)": {
        "details": "See {IERC721-balanceOf}."
      },
      "getApproved(uint256)": {
        "details": "See {IERC721-getApproved}."
      },
      "isApprovedForAll(address,address)": {
        "details": "See {IERC721-isApprovedForAll}."
      },
      "name()": {
        "details": "See {IERC721Metadata-name}."
      },
      "ownerOf(uint256)": {
        "details": "See {IERC721-ownerOf}."
      },
      "safeTransferFrom(address,address,uint256)": {
        "details": "See {IERC721-safeTransferFrom}."
      },
      "safeTransferFrom(address,address,uint256,bytes)": {
        "details": "See {IERC721-safeTransferFrom}."
      },
      "setApprovalForAll(address,bool)": {
        "details": "See {IERC721-setApprovalForAll}."
      },
      "supportsInterface(bytes4)": {
        "details": "See {IERC165-supportsInterface}."
      },
      "symbol()": {
        "details": "See {IERC721Metadata-symbol}."
      },
      "tokenURI(uint256)": {
        "details": "See {IERC721Metadata-tokenURI}."
      },
      "transferFrom(address,address,uint256)": {
        "details": "See {IERC721-transferFrom}."
      }
    },
    "version": 1
  },
  "userdoc": {
    "kind": "user",
    "methods": {},
    "version": 1
  }
}